S0190000756C747261736F6E69635F73656E736F722E73726563CE
S11300000C942A000C9447000C9447000C9447006D
S11300100C9447000C9447000C9447000C94470040
S11300200C9447000C9447000C9447000C94470030
S11300300C9447000C9447000C9447000C94470020
S11300400C9447000C9447000C9447000C94470010
S11300500C94470011241FBECFE5D8E0DEBFCDBF0E
S113006010E0A0E6B0E0EEE4FCE002C005900D92E2
S1130070A837B107D9F710E0A8E7B0E001C01D9296
S1130080AE37B107E1F70E94C5040C9425060C9421
S11300900000843409F471C0853448F4823499F141
S11300A0833408F04DC0813409F083C00FC0823618
S11300B051F1833620F4813609F07BC007C08336C2
S11300C009F43EC0843609F074C057C0413069F465
S11300D02AB381E090E0AC0102C0440F551F6A9539
S11300E0E2F7BA01622B6ABB08952AB381E090E07B
S11300F0AC0102C0440F551F6A95E2F7BA0160953E
S113010062236ABB0895413069F427B381E090E02B
S1130110AC0102C0440F551F6A95E2F7BA01622B85
S113012067BB089527B381E090E0AC0102C0440F9F
S1130130551F6A95E2F7BA016095622367BB08957B
S1130140413069F424B381E090E0AC0102C0440F73
S1130150551F6A95E2F7BA01622B64BB089524B374
S113016081E090E0AC0102C0440F551F6A95E2F7AC
S1130170BA016095622364BB0895413069F421B3E8
S113018081E090E0AC0102C0440F551F6A95E2F78C
S1130190BA01622B61BB089521B381E090E0AC0108
S11301A002C0440F551F6A95E2F7BA0160956223B5
S11301B061BB0895843409F471C0853448F48234F1
S11301C099F1833408F04DC0813409F083C00FC025
S11301D0823651F1833620F4813609F07BC007C0A2
S11301E0833609F43EC0843609F074C057C04130E8
S11301F069F42BB381E090E0AC0102C0440F551FB9
S11302006A95E2F7BA01622B6BBB08952BB381E0C8
S113021090E0AC0102C0440F551F6A95E2F7BA01A1
S1130220609562236BBB0895413069F428B381E083
S113023090E0AC0102C0440F551F6A95E2F7BA0181
S1130240622B68BB089528B381E090E0AC0102C042
S1130250440F551F6A95E2F7BA016095622368BBA3
S11302600895413069F425B381E090E0AC0102C007
S1130270440F551F6A95E2F7BA01622B65BB0895D6
S113028025B381E090E0AC0102C0440F551F6A958C
S1130290E2F7BA016095622365BB0895413069F4C1
S11302A022B381E090E0AC0102C0440F551F6A956F
S11302B0E2F7BA01622B62BB089522B381E090E0B9
S11302C0AC0102C0440F551F6A95E2F7BA0160956C
S11302D0622362BB0895843409F43DC0853440F43C
S11302E08234F9F0833450F5813409F040C00CC0F5
S11302F08236B9F0833618F48136C9F505C08336E1
S1130300E9F08436A1F527C02BB381E090E0AC017D
S113031002C0440F551F6A95E2F7BA0162276BBB0E
S1130320089528B381E090E0AC0102C0440F551F4A
S11303306A95E2F7BA01622768BB089525B381E0A4
S113034090E0AC0102C0440F551F6A95E2F7BA0170
S1130350622765BB089522B381E090E0AC0102C03E
S1130360440F551F6A95E2F7BA01622762BB0895EC
S1130370843409F44EC0853440F4823431F183343A
S1130380B0F5813409F057C00EC08236F1F08336DF
S113039020F4813609F04FC006C0833641F184361B
S11303A009F049C036C029B381E090E0062E02C0AE
S11303B0880F991F0A94E2F730E08223932302C046
S11303C0959587956A95E2F7089526B381E090E0C4
S11303D0062E02C0880F991F0A94E2F730E08223A8
S11303E0932302C0959587956A95E2F7089523B300
S11303F081E090E0062E02C0880F991F0A94E2F76C
S113040030E08223932302C0959587956A95E2F79D
S1130410089520B381E090E0062E02C0880F991F52
S11304200A94E2F730E08223932302C095958795DE
S11304306A95E2F7089508958434D9F0853438F440
S1130440823499F0833498F48134A1F40CC0823658
S113045061F0833618F4813669F405C0833639F0C7
S1130460843641F406C06ABB089567BB089564BB33
S1130470089561BB08958434D9F0853438F4823406
S113048099F0833498F48134A1F40CC0823661F07D
S1130490833618F4813669F405C0833639F084361E
S11304A041F406C06BBB089568BB089565BB08950D
S11304B062BB08958434D9F0853438F4823499F0D9
S11304C0833498F48134A1F40CC0823661F083360D
S11304D018F4813669F405C0833639F0843641F462
S11304E006C089B3089586B3089583B3089580B38D
S11304F00895843409F1853438F48234A9F08334BE
S1130500B8F48134E1F40CC0823671F0833618F407
S11305108136A9F405C0833659F0843681F40CC0C1
S11305208BB380958BBB089588B3809588BB089561
S113053085B3809585BB089582B3809582BB089569
S1130540843409F471C0853448F4823499F18334D5
S113055008F04DC0813409F083C00FC0823651F1D8
S1130560833620F4813609F07BC007C0833609F452
S11305703EC0843609F074C057C0413069F42BB3CF
S113058081E090E0AC0102C0440F551F6A95E2F788
S1130590BA01622B6BBB08952BB381E090E0AC01F0
S11305A002C0440F551F6A95E2F7BA0160956223B1
S11305B06BBB0895413069F428B381E090E0AC014D
S11305C002C0440F551F6A95E2F7BA01622B68BB5B
S11305D0089528B381E090E0AC0102C0440F551F98
S11305E06A95E2F7BA016095622368BB08954130C9
S11305F069F425B381E090E0AC0102C0440F551FBB
S11306006A95E2F7BA01622B65BB089525B381E0D0
S113061090E0AC0102C0440F551F6A95E2F7BA019D
S11306206095622365BB0895413069F422B381E08B
S113063090E0AC0102C0440F551F6A95E2F7BA017D
S1130640622B62BB089522B381E090E0AC0102C04A
S1130650440F551F6A95E2F7BA016095622362BBA5
S113066008956F70823481F0833418F48134F1F486
S113067005C0833479F08434C9F412C08BB3807F0D
S11306808BBB8BB3862B8BBB88B3807F88BB88B333
S1130690862B88BB85B3807F85BB85B3862B85BBC2
S11306A082B3807F82BB82B3682B62BB089562955C
S11306B0607F823481F0833418F48134F1F405C00E
S11306C0833479F08434C9F412C08BB38F708BBB3C
S11306D08BB3862B8BBB88B38F7088BB88B3862B78
S11306E088BB85B38F7085BB85B3862B85BB82B3EE
S11306F08F7082BB82B3682B62BB089581E460E093
S113070041E00E94DA008FE99FE00197F1F700C011
S1130710000081E460E040E00E94DA008FE99FE09D
S11307200197F1F700C000000895CF93C82F682FF8
S113073062956F7081E40E94570381E462E041E0B6
S11307400E94DA000E947E0381E46C2F0E9457030A
S113075081E462E041E00E94DA000E947E038FECB3
S113076097E00197F1F700C00000CF910895CF936F
S1130770C82F682F62956F7081E40E94570381E44B
S113078062E040E00E94DA000E947E0381E46C2F64
S11307900E94570381E462E040E00E94DA000E9474
S11307A07E038FEC97E00197F1F700C00000CF9132
S11307B008958FEF91EEA4E081509040A040E1F7BE
S11307C000C0000081E464E041E00E94490081E44B
S11307D065E041E00E94490081E466E041E00E9456
S11307E0490081E467E041E00E94490081E460E05F
S11307F041E00E94490081E462E041E00E94490036
S113080081E461E041E00E94490081E461E040E06C
S11308100E94DA0082E00E94B703AFE1BEE41197C0
S1130820F1F700C0000088E20E94B7038FEC97E064
S11308300197F1F700C000008EE00E94B703AFEC0F
S1130840B7E01197F1F700C000008FE19EE4019733
S1130850F1F700C0000086E00E94B703AFECB7E0F8
S11308601197F1F700C00000089581E00E94B703DA
S11308708FE19EE40197F1F700C000000895CF9343
S1130880DF93EC018881882331F021960E9495033F
S113089089918823D9F7DF91CF910895282F21508A
S11308A0223070F4613170F4662371F0813019F4F0
S11308B0962F91580AC0823041F4962F915405C066
S11308C090E803C090E801C090E8892F0E94B70324
S11308D08FEC97E00197F1F700C00000089541E024
S11308E00E944900089541E00E94DA00089540E022
S11308F00E94DA0008950E946B010895789483B7EA
S1130900816083BF83B7846083BF83B7886083BFFC
S113091080E58CBF89B7826089BF0895BB9A83B78D
S1130920886083BF83B7806483BF80E48CBF83B750
S1130930816083BF83B7846083BF83B7806183BFD3
S113094083B7806283BF0895BB9A83B7806483BFF3
S113095080E48CBF83B7816083BF83B7846083BF27
S113096083B7806183BF83B7806283BF089582B5F4
S1130970886082BD85B5816085BD85B5846085BD8F
S1130980789489B7806489BF089584E490E060E036
S113099070E00E946F0484E490E061E070E00E94E3
S11309A06F040E94D90383E660E041E00E9449009D
S11309B010E201EC0F2EF1E8BF2EF02D0F2EF0E81F
S11309C0CF2EF4E8DF2EFEE1EF2EF0E0FF2EF02D27
S11309D00F2EFDE62F2EF0E03F2EF02D0F2EF0E629
S11309E08F2EF0E09F2EF02D0F2EFAE06F2E77243D
S11309F0F02D0F2EFAE64F2EF0E05F2EF02D1FBCE7
S1130A0018BF83E660E041E00E94DA0080E18A9545
S1130A10F1F700C083E660E040E00E94DA000EBD1A
S1130A2008B605FEFDCF86B597B518BFBEBC08B69F
S1130A3005FEFDCF66B577B518BF1EBC1DBC1CBC3A
S1130A40681B790B80E090E028E237E840E050E052
S1130A500E94D005A70196010E940306E9012A30ED
S1130A60310528F584E490E060E070E00E947304AE
S1130A7084E490E061E070E00E9473040E94350415
S1130A80C4010E943F04CE01B3010E94EF05805DC2
S1130A900E949503C2010E943F048FE996E8A1E0F9
S1130AA081509040A040E1F700C00000A8CFC901E8
S1130AB0C3978133910558F584E490E061E070E0D8
S1130AC00E9473040E943504C4010E943F04CE01B5
S1130AD0B3010E94EF05C82F862F805D0E94950305
S1130AE08C2F805D0E949503C2010E943F048FE910
S1130AF096E8A1E081509040A040E1F700C00000DA
S1130B0084E490E060E070E00E94770478CF2333BF
S1130B10310558F584E490E060E070E00E947304CD
S1130B2084E490E061E070E00E9473040E94350464
S1130B30C4010E943F04CE01B3010E94EF05C82FF7
S1130B40862F805D0E9495038C2F805D0E94950303
S1130B50C2010E943F048FE996E8A1E081509040D1
S1130B60A040E1F700C000004ACF0E943504C10153
S1130B700E943F048FE59AEEA0E081509040A0408F
S1130B80E1F700C0000084E490E061E070E00E94BE
S1130B90770484E490E060E070E00E9477042FCF53
S1130BA0629FD001739FF001829FE00DF11D649F4D
S1130BB0E00DF11D929FF00D839FF00D749FF00DD9
S1130BC0659FF00D9927729FB00DE11DF91F639F7A
S1130BD0B00DE11DF91FBD01CF0111240895AA1B19
S1130BE0BB1B51E107C0AA1FBB1FA617B70710F014
S1130BF0A61BB70B881F991F5A95A9F78095909546
S1130C00BC01CD010895A1E21A2EAA1BBB1BFD0154
S1130C100DC0AA1FBB1FEE1FFF1FA217B307E407D7
S1130C20F50720F0A21BB30BE40BF50B661F771F2F
S1130C30881F991F1A9469F760957095809590950F
S1110C409B01AC01BD01CF010895F894FFCFD4
S1130C4E64697374616E63653D00636D006E6F203D
S10B0C5E6F626A656374000013
S9030000FC
